{
    "contractName": "ERC721SeaDrop",
    "abi": [
        {
            "inputs": [
                {
                    "internalType": "string",
                    "name": "name",
                    "type": "string"
                },
                {
                    "internalType": "string",
                    "name": "symbol",
                    "type": "string"
                },
                {
                    "internalType": "address[]",
                    "name": "allowedSeaDrop",
                    "type": "address[]"
                }
            ],
            "stateMutability": "nonpayable",
            "type": "constructor"
        },
        {
            "inputs": [],
            "name": "AlreadyInitialized",
            "type": "error"
        },
        {
            "inputs": [],
            "name": "ApprovalCallerNotOwnerNorApproved",
            "type": "error"
        },
        {
            "inputs": [],
            "name": "ApprovalQueryForNonexistentToken",
            "type": "error"
        },
        {
            "inputs": [],
            "name": "BalanceQueryForZeroAddress",
            "type": "error"
        },
        {
            "inputs": [
                {
                    "internalType": "uint256",
                    "name": "newMaxSupply",
                    "type": "uint256"
                }
            ],
            "name": "CannotExceedMaxSupplyOfUint64",
            "type": "error"
        },
        {
            "inputs": [
                {
                    "internalType": "uint256",
                    "name": "basisPoints",
                    "type": "uint256"
                }
            ],
            "name": "InvalidRoyaltyBasisPoints",
            "type": "error"
        },
        {
            "inputs": [],
            "name": "MintERC2309QuantityExceedsLimit",
            "type": "error"
        },
        {
            "inputs": [
                {
                    "internalType": "uint256",
                    "name": "total",
                    "type": "uint256"
                },
                {
                    "internalType": "uint256",
                    "name": "maxSupply",
                    "type": "uint256"
                }
            ],
            "name": "MintQuantityExceedsMaxSupply",
            "type": "error"
        },
        {
            "inputs": [],
            "name": "MintToZeroAddress",
            "type": "error"
        },
        {
            "inputs": [],
            "name": "MintZeroQuantity",
            "type": "error"
        },
        {
            "inputs": [],
            "name": "NewOwnerIsZeroAddress",
            "type": "error"
        },
        {
            "inputs": [],
            "name": "NotNextOwner",
            "type": "error"
        },
        {
            "inputs": [],
            "name": "OnlyAllowedSeaDrop",
            "type": "error"
        },
        {
            "inputs": [],
            "name": "OnlyOwner",
            "type": "error"
        },
        {
            "inputs": [],
            "name": "OwnerQueryForNonexistentToken",
            "type": "error"
        },
        {
            "inputs": [],
            "name": "OwnershipNotInitializedForExtraData",
            "type": "error"
        },
        {
            "inputs": [],
            "name": "ProvenanceHashCannotBeSetAfterMintStarted",
            "type": "error"
        },
        {
            "inputs": [],
            "name": "RoyaltyAddressCannotBeZeroAddress",
            "type": "error"
        },
        {
            "inputs": [],
            "name": "SameTransferValidator",
            "type": "error"
        },
        {
            "inputs": [],
            "name": "SignersMismatch",
            "type": "error"
        },
        {
            "inputs": [],
            "name": "TokenGatedMismatch",
            "type": "error"
        },
        {
            "inputs": [],
            "name": "TransferCallerNotOwnerNorApproved",
            "type": "error"
        },
        {
            "inputs": [],
            "name": "TransferFromIncorrectOwner",
            "type": "error"
        },
        {
            "inputs": [],
            "name": "TransferToNonERC721ReceiverImplementer",
            "type": "error"
        },
        {
            "inputs": [],
            "name": "TransferToZeroAddress",
            "type": "error"
        },
        {
            "inputs": [],
            "name": "URIQueryForNonexistentToken",
            "type": "error"
        },
        {
            "anonymous": false,
            "inputs": [
                {
                    "indexed": false,
                    "internalType": "address[]",
                    "name": "allowedSeaDrop",
                    "type": "address[]"
                }
            ],
            "name": "AllowedSeaDropUpdated",
            "type": "event"
        },
        {
            "anonymous": false,
            "inputs": [
                {
                    "indexed": true,
                    "internalType": "address",
                    "name": "owner",
                    "type": "address"
                },
                {
                    "indexed": true,
                    "internalType": "address",
                    "name": "approved",
                    "type": "address"
                },
                {
                    "indexed": true,
                    "internalType": "uint256",
                    "name": "tokenId",
                    "type": "uint256"
                }
            ],
            "name": "Approval",
            "type": "event"
        },
        {
            "anonymous": false,
            "inputs": [
                {
                    "indexed": true,
                    "internalType": "address",
                    "name": "owner",
                    "type": "address"
                },
                {
                    "indexed": true,
                    "internalType": "address",
                    "name": "operator",
                    "type": "address"
                },
                {
                    "indexed": false,
                    "internalType": "bool",
                    "name": "approved",
                    "type": "bool"
                }
            ],
            "name": "ApprovalForAll",
            "type": "event"
        },
        {
            "anonymous": false,
            "inputs": [
                {
                    "indexed": false,
                    "internalType": "uint256",
                    "name": "_fromTokenId",
                    "type": "uint256"
                },
                {
                    "indexed": false,
                    "internalType": "uint256",
                    "name": "_toTokenId",
                    "type": "uint256"
                }
            ],
            "name": "BatchMetadataUpdate",
            "type": "event"
        },
        {
            "anonymous": false,
            "inputs": [
                {
                    "indexed": true,
                    "internalType": "uint256",
                    "name": "fromTokenId",
                    "type": "uint256"
                },
                {
                    "indexed": false,
                    "internalType": "uint256",
                    "name": "toTokenId",
                    "type": "uint256"
                },
                {
                    "indexed": true,
                    "internalType": "address",
                    "name": "from",
                    "type": "address"
                },
                {
                    "indexed": true,
                    "internalType": "address",
                    "name": "to",
                    "type": "address"
                }
            ],
            "name": "ConsecutiveTransfer",
            "type": "event"
        },
        {
            "anonymous": false,
            "inputs": [
                {
                    "indexed": false,
                    "internalType": "string",
                    "name": "newContractURI",
                    "type": "string"
                }
            ],
            "name": "ContractURIUpdated",
            "type": "event"
        },
        {
            "anonymous": false,
            "inputs": [
                {
                    "indexed": false,
                    "internalType": "uint256",
                    "name": "newMaxSupply",
                    "type": "uint256"
                }
            ],
            "name": "MaxSupplyUpdated",
            "type": "event"
        },
        {
            "anonymous": false,
            "inputs": [
                {
                    "indexed": true,
                    "internalType": "address",
                    "name": "previousOwner",
                    "type": "address"
                },
                {
                    "indexed": true,
                    "internalType": "address",
                    "name": "newOwner",
                    "type": "address"
                }
            ],
            "name": "OwnershipTransferred",
            "type": "event"
        },
        {
            "anonymous": false,
            "inputs": [
                {
                    "indexed": false,
                    "internalType": "address",
                    "name": "newPotentialAdministrator",
                    "type": "address"
                }
            ],
            "name": "PotentialOwnerUpdated",
            "type": "event"
        },
        {
            "anonymous": false,
            "inputs": [
                {
                    "indexed": false,
                    "internalType": "bytes32",
                    "name": "previousHash",
                    "type": "bytes32"
                },
                {
                    "indexed": false,
                    "internalType": "bytes32",
                    "name": "newHash",
                    "type": "bytes32"
                }
            ],
            "name": "ProvenanceHashUpdated",
            "type": "event"
        },
        {
            "anonymous": false,
            "inputs": [
                {
                    "indexed": false,
                    "internalType": "address",
                    "name": "receiver",
                    "type": "address"
                },
                {
                    "indexed": false,
                    "internalType": "uint256",
                    "name": "bps",
                    "type": "uint256"
                }
            ],
            "name": "RoyaltyInfoUpdated",
            "type": "event"
        },
        {
            "anonymous": false,
            "inputs": [],
            "name": "SeaDropTokenDeployed",
            "type": "event"
        },
        {
            "anonymous": false,
            "inputs": [
                {
                    "indexed": true,
                    "internalType": "address",
                    "name": "from",
                    "type": "address"
                },
                {
                    "indexed": true,
                    "internalType": "address",
                    "name": "to",
                    "type": "address"
                },
                {
                    "indexed": true,
                    "internalType": "uint256",
                    "name": "tokenId",
                    "type": "uint256"
                }
            ],
            "name": "Transfer",
            "type": "event"
        },
        {
            "anonymous": false,
            "inputs": [
                {
                    "indexed": false,
                    "internalType": "address",
                    "name": "oldValidator",
                    "type": "address"
                },
                {
                    "indexed": false,
                    "internalType": "address",
                    "name": "newValidator",
                    "type": "address"
                }
            ],
            "name": "TransferValidatorUpdated",
            "type": "event"
        },
        {
            "inputs": [],
            "name": "acceptOwnership",
            "outputs": [],
            "stateMutability": "nonpayable",
            "type": "function"
        },
        {
            "inputs": [
                {
                    "internalType": "address",
                    "name": "to",
                    "type": "address"
                },
                {
                    "internalType": "uint256",
                    "name": "tokenId",
                    "type": "uint256"
                }
            ],
            "name": "approve",
            "outputs": [],
            "stateMutability": "nonpayable",
            "type": "function"
        },
        {
            "inputs": [
                {
                    "internalType": "address",
                    "name": "owner",
                    "type": "address"
                }
            ],
            "name": "balanceOf",
            "outputs": [
                {
                    "internalType": "uint256",
                    "name": "",
                    "type": "uint256"
                }
            ],
            "stateMutability": "view",
            "type": "function"
        },
        {
            "inputs": [],
            "name": "baseURI",
            "outputs": [
                {
                    "internalType": "string",
                    "name": "",
                    "type": "string"
                }
            ],
            "stateMutability": "view",
            "type": "function"
        },
        {
            "inputs": [
                {
                    "internalType": "uint256",
                    "name": "tokenId",
                    "type": "uint256"
                }
            ],
            "name": "burn",
            "outputs": [],
            "stateMutability": "nonpayable",
            "type": "function"
        },
        {
            "inputs": [],
            "name": "cancelOwnershipTransfer",
            "outputs": [],
            "stateMutability": "nonpayable",
            "type": "function"
        },
        {
            "inputs": [],
            "name": "contractURI",
            "outputs": [
                {
                    "internalType": "string",
                    "name": "",
                    "type": "string"
                }
            ],
            "stateMutability": "view",
            "type": "function"
        },
        {
            "inputs": [
                {
                    "internalType": "uint256",
                    "name": "fromTokenId",
                    "type": "uint256"
                },
                {
                    "internalType": "uint256",
                    "name": "toTokenId",
                    "type": "uint256"
                }
            ],
            "name": "emitBatchMetadataUpdate",
            "outputs": [],
            "stateMutability": "nonpayable",
            "type": "function"
        },
        {
            "inputs": [
                {
                    "internalType": "uint256",
                    "name": "tokenId",
                    "type": "uint256"
                }
            ],
            "name": "getApproved",
            "outputs": [
                {
                    "internalType": "address",
                    "name": "",
                    "type": "address"
                }
            ],
            "stateMutability": "view",
            "type": "function"
        },
        {
            "inputs": [
                {
                    "internalType": "address",
                    "name": "minter",
                    "type": "address"
                }
            ],
            "name": "getMintStats",
            "outputs": [
                {
                    "internalType": "uint256",
                    "name": "minterNumMinted",
                    "type": "uint256"
                },
                {
                    "internalType": "uint256",
                    "name": "currentTotalSupply",
                    "type": "uint256"
                },
                {
                    "internalType": "uint256",
                    "name": "maxSupply",
                    "type": "uint256"
                }
            ],
            "stateMutability": "view",
            "type": "function"
        },
        {
            "inputs": [],
            "name": "getTransferValidationFunction",
            "outputs": [
                {
                    "internalType": "bytes4",
                    "name": "functionSignature",
                    "type": "bytes4"
                },
                {
                    "internalType": "bool",
                    "name": "isViewFunction",
                    "type": "bool"
                }
            ],
            "stateMutability": "pure",
            "type": "function"
        },
        {
            "inputs": [],
            "name": "getTransferValidator",
            "outputs": [
                {
                    "internalType": "address",
                    "name": "",
                    "type": "address"
                }
            ],
            "stateMutability": "view",
            "type": "function"
        },
        {
            "inputs": [
                {
                    "internalType": "address",
                    "name": "owner",
                    "type": "address"
                },
                {
                    "internalType": "address",
                    "name": "operator",
                    "type": "address"
                }
            ],
            "name": "isApprovedForAll",
            "outputs": [
                {
                    "internalType": "bool",
                    "name": "",
                    "type": "bool"
                }
            ],
            "stateMutability": "view",
            "type": "function"
        },
        {
            "inputs": [],
            "name": "maxSupply",
            "outputs": [
                {
                    "internalType": "uint256",
                    "name": "",
                    "type": "uint256"
                }
            ],
            "stateMutability": "view",
            "type": "function"
        },
        {
            "inputs": [
                {
                    "internalType": "address",
                    "name": "minter",
                    "type": "address"
                },
                {
                    "internalType": "uint256",
                    "name": "quantity",
                    "type": "uint256"
                }
            ],
            "name": "mintSeaDrop",
            "outputs": [],
            "stateMutability": "nonpayable",
            "type": "function"
        },
        {
            "inputs": [
                {
                    "components": [
                        {
                            "internalType": "uint256",
                            "name": "maxSupply",
                            "type": "uint256"
                        },
                        {
                            "internalType": "string",
                            "name": "baseURI",
                            "type": "string"
                        },
                        {
                            "internalType": "string",
                            "name": "contractURI",
                            "type": "string"
                        },
                        {
                            "internalType": "address",
                            "name": "seaDropImpl",
                            "type": "address"
                        },
                        {
                            "components": [
                                {
                                    "internalType": "uint80",
                                    "name": "mintPrice",
                                    "type": "uint80"
                                },
                                {
                                    "internalType": "uint48",
                                    "name": "startTime",
                                    "type": "uint48"
                                },
                                {
                                    "internalType": "uint48",
                                    "name": "endTime",
                                    "type": "uint48"
                                },
                                {
                                    "internalType": "uint16",
                                    "name": "maxTotalMintableByWallet",
                                    "type": "uint16"
                                },
                                {
                                    "internalType": "uint16",
                                    "name": "feeBps",
                                    "type": "uint16"
                                },
                                {
                                    "internalType": "bool",
                                    "name": "restrictFeeRecipients",
                                    "type": "bool"
                                }
                            ],
                            "internalType": "struct PublicDrop",
                            "name": "publicDrop",
                            "type": "tuple"
                        },
                        {
                            "internalType": "string",
                            "name": "dropURI",
                            "type": "string"
                        },
                        {
                            "components": [
                                {
                                    "internalType": "bytes32",
                                    "name": "merkleRoot",
                                    "type": "bytes32"
                                },
                                {
                                    "internalType": "string[]",
                                    "name": "publicKeyURIs",
                                    "type": "string[]"
                                },
                                {
                                    "internalType": "string",
                                    "name": "allowListURI",
                                    "type": "string"
                                }
                            ],
                            "internalType": "struct AllowListData",
                            "name": "allowListData",
                            "type": "tuple"
                        },
                        {
                            "internalType": "address",
                            "name": "creatorPayoutAddress",
                            "type": "address"
                        },
                        {
                            "internalType": "bytes32",
                            "name": "provenanceHash",
                            "type": "bytes32"
                        },
                        {
                            "internalType": "address[]",
                            "name": "allowedFeeRecipients",
                            "type": "address[]"
                        },
                        {
                            "internalType": "address[]",
                            "name": "disallowedFeeRecipients",
                            "type": "address[]"
                        },
                        {
                            "internalType": "address[]",
                            "name": "allowedPayers",
                            "type": "address[]"
                        },
                        {
                            "internalType": "address[]",
                            "name": "disallowedPayers",
                            "type": "address[]"
                        },
                        {
                            "internalType": "address[]",
                            "name": "tokenGatedAllowedNftTokens",
                            "type": "address[]"
                        },
                        {
                            "components": [
                                {
                                    "internalType": "uint80",
                                    "name": "mintPrice",
                                    "type": "uint80"
                                },
                                {
                                    "internalType": "uint16",
                                    "name": "maxTotalMintableByWallet",
                                    "type": "uint16"
                                },
                                {
                                    "internalType": "uint48",
                                    "name": "startTime",
                                    "type": "uint48"
                                },
                                {
                                    "internalType": "uint48",
                                    "name": "endTime",
                                    "type": "uint48"
                                },
                                {
                                    "internalType": "uint8",
                                    "name": "dropStageIndex",
                                    "type": "uint8"
                                },
                                {
                                    "internalType": "uint32",
                                    "name": "maxTokenSupplyForStage",
                                    "type": "uint32"
                                },
                                {
                                    "internalType": "uint16",
                                    "name": "feeBps",
                                    "type": "uint16"
                                },
                                {
                                    "internalType": "bool",
                                    "name": "restrictFeeRecipients",
                                    "type": "bool"
                                }
                            ],
                            "internalType": "struct TokenGatedDropStage[]",
                            "name": "tokenGatedDropStages",
                            "type": "tuple[]"
                        },
                        {
                            "internalType": "address[]",
                            "name": "disallowedTokenGatedAllowedNftTokens",
                            "type": "address[]"
                        },
                        {
                            "internalType": "address[]",
                            "name": "signers",
                            "type": "address[]"
                        },
                        {
                            "components": [
                                {
                                    "internalType": "uint80",
                                    "name": "minMintPrice",
                                    "type": "uint80"
                                },
                                {
                                    "internalType": "uint24",
                                    "name": "maxMaxTotalMintableByWallet",
                                    "type": "uint24"
                                },
                                {
                                    "internalType": "uint40",
                                    "name": "minStartTime",
                                    "type": "uint40"
                                },
                                {
                                    "internalType": "uint40",
                                    "name": "maxEndTime",
                                    "type": "uint40"
                                },
                                {
                                    "internalType": "uint40",
                                    "name": "maxMaxTokenSupplyForStage",
                                    "type": "uint40"
                                },
                                {
                                    "internalType": "uint16",
                                    "name": "minFeeBps",
                                    "type": "uint16"
                                },
                                {
                                    "internalType": "uint16",
                                    "name": "maxFeeBps",
                                    "type": "uint16"
                                }
                            ],
                            "internalType": "struct SignedMintValidationParams[]",
                            "name": "signedMintValidationParams",
                            "type": "tuple[]"
                        },
                        {
                            "internalType": "address[]",
                            "name": "disallowedSigners",
                            "type": "address[]"
                        }
                    ],
                    "internalType": "struct ERC721SeaDropStructsErrorsAndEvents.MultiConfigureStruct",
                    "name": "config",
                    "type": "tuple"
                }
            ],
            "name": "multiConfigure",
            "outputs": [],
            "stateMutability": "nonpayable",
            "type": "function"
        },
        {
            "inputs": [],
            "name": "name",
            "outputs": [
                {
                    "internalType": "string",
                    "name": "",
                    "type": "string"
                }
            ],
            "stateMutability": "view",
            "type": "function"
        },
        {
            "inputs": [],
            "name": "owner",
            "outputs": [
                {
                    "internalType": "address",
                    "name": "",
                    "type": "address"
                }
            ],
            "stateMutability": "view",
            "type": "function"
        },
        {
            "inputs": [
                {
                    "internalType": "uint256",
                    "name": "tokenId",
                    "type": "uint256"
                }
            ],
            "name": "ownerOf",
            "outputs": [
                {
                    "internalType": "address",
                    "name": "",
                    "type": "address"
                }
            ],
            "stateMutability": "view",
            "type": "function"
        },
        {
            "inputs": [],
            "name": "provenanceHash",
            "outputs": [
                {
                    "internalType": "bytes32",
                    "name": "",
                    "type": "bytes32"
                }
            ],
            "stateMutability": "view",
            "type": "function"
        },
        {
            "inputs": [],
            "name": "renounceOwnership",
            "outputs": [],
            "stateMutability": "nonpayable",
            "type": "function"
        },
        {
            "inputs": [],
            "name": "royaltyAddress",
            "outputs": [
                {
                    "internalType": "address",
                    "name": "",
                    "type": "address"
                }
            ],
            "stateMutability": "view",
            "type": "function"
        },
        {
            "inputs": [],
            "name": "royaltyBasisPoints",
            "outputs": [
                {
                    "internalType": "uint256",
                    "name": "",
                    "type": "uint256"
                }
            ],
            "stateMutability": "view",
            "type": "function"
        },
        {
            "inputs": [
                {
                    "internalType": "uint256",
                    "name": "",
                    "type": "uint256"
                },
                {
                    "internalType": "uint256",
                    "name": "_salePrice",
                    "type": "uint256"
                }
            ],
            "name": "royaltyInfo",
            "outputs": [
                {
                    "internalType": "address",
                    "name": "receiver",
                    "type": "address"
                },
                {
                    "internalType": "uint256",
                    "name": "royaltyAmount",
                    "type": "uint256"
                }
            ],
            "stateMutability": "view",
            "type": "function"
        },
        {
            "inputs": [
                {
                    "internalType": "address",
                    "name": "from",
                    "type": "address"
                },
                {
                    "internalType": "address",
                    "name": "to",
                    "type": "address"
                },
                {
                    "internalType": "uint256",
                    "name": "tokenId",
                    "type": "uint256"
                }
            ],
            "name": "safeTransferFrom",
            "outputs": [],
            "stateMutability": "nonpayable",
            "type": "function"
        },
        {
            "inputs": [
                {
                    "internalType": "address",
                    "name": "from",
                    "type": "address"
                },
                {
                    "internalType": "address",
                    "name": "to",
                    "type": "address"
                },
                {
                    "internalType": "uint256",
                    "name": "tokenId",
                    "type": "uint256"
                },
                {
                    "internalType": "bytes",
                    "name": "_data",
                    "type": "bytes"
                }
            ],
            "name": "safeTransferFrom",
            "outputs": [],
            "stateMutability": "nonpayable",
            "type": "function"
        },
        {
            "inputs": [
                {
                    "internalType": "address",
                    "name": "operator",
                    "type": "address"
                },
                {
                    "internalType": "bool",
                    "name": "approved",
                    "type": "bool"
                }
            ],
            "name": "setApprovalForAll",
            "outputs": [],
            "stateMutability": "nonpayable",
            "type": "function"
        },
        {
            "inputs": [
                {
                    "internalType": "string",
                    "name": "newBaseURI",
                    "type": "string"
                }
            ],
            "name": "setBaseURI",
            "outputs": [],
            "stateMutability": "nonpayable",
            "type": "function"
        },
        {
            "inputs": [
                {
                    "internalType": "string",
                    "name": "newContractURI",
                    "type": "string"
                }
            ],
            "name": "setContractURI",
            "outputs": [],
            "stateMutability": "nonpayable",
            "type": "function"
        },
        {
            "inputs": [
                {
                    "internalType": "uint256",
                    "name": "newMaxSupply",
                    "type": "uint256"
                }
            ],
            "name": "setMaxSupply",
            "outputs": [],
            "stateMutability": "nonpayable",
            "type": "function"
        },
        {
            "inputs": [
                {
                    "internalType": "bytes32",
                    "name": "newProvenanceHash",
                    "type": "bytes32"
                }
            ],
            "name": "setProvenanceHash",
            "outputs": [],
            "stateMutability": "nonpayable",
            "type": "function"
        },
        {
            "inputs": [
                {
                    "components": [
                        {
                            "internalType": "address",
                            "name": "royaltyAddress",
                            "type": "address"
                        },
                        {
                            "internalType": "uint96",
                            "name": "royaltyBps",
                            "type": "uint96"
                        }
                    ],
                    "internalType": "struct ISeaDropTokenContractMetadata.RoyaltyInfo",
                    "name": "newInfo",
                    "type": "tuple"
                }
            ],
            "name": "setRoyaltyInfo",
            "outputs": [],
            "stateMutability": "nonpayable",
            "type": "function"
        },
        {
            "inputs": [
                {
                    "internalType": "address",
                    "name": "newValidator",
                    "type": "address"
                }
            ],
            "name": "setTransferValidator",
            "outputs": [],
            "stateMutability": "nonpayable",
            "type": "function"
        },
        {
            "inputs": [
                {
                    "internalType": "bytes4",
                    "name": "interfaceId",
                    "type": "bytes4"
                }
            ],
            "name": "supportsInterface",
            "outputs": [
                {
                    "internalType": "bool",
                    "name": "",
                    "type": "bool"
                }
            ],
            "stateMutability": "view",
            "type": "function"
        },
        {
            "inputs": [],
            "name": "symbol",
            "outputs": [
                {
                    "internalType": "string",
                    "name": "",
                    "type": "string"
                }
            ],
            "stateMutability": "view",
            "type": "function"
        },
        {
            "inputs": [
                {
                    "internalType": "uint256",
                    "name": "tokenId",
                    "type": "uint256"
                }
            ],
            "name": "tokenURI",
            "outputs": [
                {
                    "internalType": "string",
                    "name": "",
                    "type": "string"
                }
            ],
            "stateMutability": "view",
            "type": "function"
        },
        {
            "inputs": [],
            "name": "totalSupply",
            "outputs": [
                {
                    "internalType": "uint256",
                    "name": "",
                    "type": "uint256"
                }
            ],
            "stateMutability": "view",
            "type": "function"
        },
        {
            "inputs": [
                {
                    "internalType": "address",
                    "name": "from",
                    "type": "address"
                },
                {
                    "internalType": "address",
                    "name": "to",
                    "type": "address"
                },
                {
                    "internalType": "uint256",
                    "name": "tokenId",
                    "type": "uint256"
                }
            ],
            "name": "transferFrom",
            "outputs": [],
            "stateMutability": "nonpayable",
            "type": "function"
        },
        {
            "inputs": [
                {
                    "internalType": "address",
                    "name": "newPotentialOwner",
                    "type": "address"
                }
            ],
            "name": "transferOwnership",
            "outputs": [],
            "stateMutability": "nonpayable",
            "type": "function"
        },
        {
            "inputs": [
                {
                    "internalType": "address",
                    "name": "seaDropImpl",
                    "type": "address"
                },
                {
                    "components": [
                        {
                            "internalType": "bytes32",
                            "name": "merkleRoot",
                            "type": "bytes32"
                        },
                        {
                            "internalType": "string[]",
                            "name": "publicKeyURIs",
                            "type": "string[]"
                        },
                        {
                            "internalType": "string",
                            "name": "allowListURI",
                            "type": "string"
                        }
                    ],
                    "internalType": "struct AllowListData",
                    "name": "allowListData",
                    "type": "tuple"
                }
            ],
            "name": "updateAllowList",
            "outputs": [],
            "stateMutability": "nonpayable",
            "type": "function"
        },
        {
            "inputs": [
                {
                    "internalType": "address",
                    "name": "seaDropImpl",
                    "type": "address"
                },
                {
                    "internalType": "address",
                    "name": "feeRecipient",
                    "type": "address"
                },
                {
                    "internalType": "bool",
                    "name": "allowed",
                    "type": "bool"
                }
            ],
            "name": "updateAllowedFeeRecipient",
            "outputs": [],
            "stateMutability": "nonpayable",
            "type": "function"
        },
        {
            "inputs": [
                {
                    "internalType": "address[]",
                    "name": "allowedSeaDrop",
                    "type": "address[]"
                }
            ],
            "name": "updateAllowedSeaDrop",
            "outputs": [],
            "stateMutability": "nonpayable",
            "type": "function"
        },
        {
            "inputs": [
                {
                    "internalType": "address",
                    "name": "seaDropImpl",
                    "type": "address"
                },
                {
                    "internalType": "address",
                    "name": "payoutAddress",
                    "type": "address"
                }
            ],
            "name": "updateCreatorPayoutAddress",
            "outputs": [],
            "stateMutability": "nonpayable",
            "type": "function"
        },
        {
            "inputs": [
                {
                    "internalType": "address",
                    "name": "seaDropImpl",
                    "type": "address"
                },
                {
                    "internalType": "string",
                    "name": "dropURI",
                    "type": "string"
                }
            ],
            "name": "updateDropURI",
            "outputs": [],
            "stateMutability": "nonpayable",
            "type": "function"
        },
        {
            "inputs": [
                {
                    "internalType": "address",
                    "name": "seaDropImpl",
                    "type": "address"
                },
                {
                    "internalType": "address",
                    "name": "payer",
                    "type": "address"
                },
                {
                    "internalType": "bool",
                    "name": "allowed",
                    "type": "bool"
                }
            ],
            "name": "updatePayer",
            "outputs": [],
            "stateMutability": "nonpayable",
            "type": "function"
        },
        {
            "inputs": [
                {
                    "internalType": "address",
                    "name": "seaDropImpl",
                    "type": "address"
                },
                {
                    "components": [
                        {
                            "internalType": "uint80",
                            "name": "mintPrice",
                            "type": "uint80"
                        },
                        {
                            "internalType": "uint48",
                            "name": "startTime",
                            "type": "uint48"
                        },
                        {
                            "internalType": "uint48",
                            "name": "endTime",
                            "type": "uint48"
                        },
                        {
                            "internalType": "uint16",
                            "name": "maxTotalMintableByWallet",
                            "type": "uint16"
                        },
                        {
                            "internalType": "uint16",
                            "name": "feeBps",
                            "type": "uint16"
                        },
                        {
                            "internalType": "bool",
                            "name": "restrictFeeRecipients",
                            "type": "bool"
                        }
                    ],
                    "internalType": "struct PublicDrop",
                    "name": "publicDrop",
                    "type": "tuple"
                }
            ],
            "name": "updatePublicDrop",
            "outputs": [],
            "stateMutability": "nonpayable",
            "type": "function"
        },
        {
            "inputs": [
                {
                    "internalType": "address",
                    "name": "seaDropImpl",
                    "type": "address"
                },
                {
                    "internalType": "address",
                    "name": "signer",
                    "type": "address"
                },
                {
                    "components": [
                        {
                            "internalType": "uint80",
                            "name": "minMintPrice",
                            "type": "uint80"
                        },
                        {
                            "internalType": "uint24",
                            "name": "maxMaxTotalMintableByWallet",
                            "type": "uint24"
                        },
                        {
                            "internalType": "uint40",
                            "name": "minStartTime",
                            "type": "uint40"
                        },
                        {
                            "internalType": "uint40",
                            "name": "maxEndTime",
                            "type": "uint40"
                        },
                        {
                            "internalType": "uint40",
                            "name": "maxMaxTokenSupplyForStage",
                            "type": "uint40"
                        },
                        {
                            "internalType": "uint16",
                            "name": "minFeeBps",
                            "type": "uint16"
                        },
                        {
                            "internalType": "uint16",
                            "name": "maxFeeBps",
                            "type": "uint16"
                        }
                    ],
                    "internalType": "struct SignedMintValidationParams",
                    "name": "signedMintValidationParams",
                    "type": "tuple"
                }
            ],
            "name": "updateSignedMintValidationParams",
            "outputs": [],
            "stateMutability": "nonpayable",
            "type": "function"
        },
        {
            "inputs": [
                {
                    "internalType": "address",
                    "name": "seaDropImpl",
                    "type": "address"
                },
                {
                    "internalType": "address",
                    "name": "allowedNftToken",
                    "type": "address"
                },
                {
                    "components": [
                        {
                            "internalType": "uint80",
                            "name": "mintPrice",
                            "type": "uint80"
                        },
                        {
                            "internalType": "uint16",
                            "name": "maxTotalMintableByWallet",
                            "type": "uint16"
                        },
                        {
                            "internalType": "uint48",
                            "name": "startTime",
                            "type": "uint48"
                        },
                        {
                            "internalType": "uint48",
                            "name": "endTime",
                            "type": "uint48"
                        },
                        {
                            "internalType": "uint8",
                            "name": "dropStageIndex",
                            "type": "uint8"
                        },
                        {
                            "internalType": "uint32",
                            "name": "maxTokenSupplyForStage",
                            "type": "uint32"
                        },
                        {
                            "internalType": "uint16",
                            "name": "feeBps",
                            "type": "uint16"
                        },
                        {
                            "internalType": "bool",
                            "name": "restrictFeeRecipients",
                            "type": "bool"
                        }
                    ],
                    "internalType": "struct TokenGatedDropStage",
                    "name": "dropStage",
                    "type": "tuple"
                }
            ],
            "name": "updateTokenGatedDrop",
            "outputs": [],
            "stateMutability": "nonpayable",
            "type": "function"
        }
    ],
    "bytecode": "60406080815234620004a95762004567803803806200001e81620004ae565b928339810190606081830312620004a95780516001600160401b039190828111620004a9578362000051918301620004d4565b9260209182810151848111620004a957826200006f918301620004d4565b908681015190858211620004a9570190601f838184011215620004a957825191868311620002995760059483861b9487620000ac818801620004ae565b809681520190888297820101928311620004a9578801905b8282106200048857505050875187811162000299576002546001998a82811c921680156200047d575b89831014620003b55781858493116200044c575b508890858311600114620003e257600092620003d6575b5050600019600383901b1c191690891b176002555b80519087821162000299576003928354918a83811c93168015620003cb575b89841014620003b55782828594116200037a575b5088918311600114620003135760009262000307575b505060001982841b1c191690881b1790555b85600055303b620002f75760098054336001600160a01b0319821681179092556001600160a01b0394919085167f8be0079c531659141344cd1fd0a4f28419497f9722a3daafe3b4186f6b6457e0600080a38660105581519060005b828110620002af5750505051938411620002995768010000000000000000841162000299576012548460125580851062000278575b50916012600052806000209160005b858110620002645787517fd7aca75208b9be5ffc04c6a01922020ffd62b55e68e502e317f5344960279af8600080a16140079081620005608239f35b845182168482015593820193860162000228565b620002929060126000528585600020918201910162000546565b3862000219565b634e487b7160e01b600052604160045260246000fd5b8351811015620002e1578086888b93851b8701015116600052601188528a6000208260ff1982541617905501620001e4565b634e487b7160e01b600052603260045260246000fd5b865162dc149f60e41b8152600490fd5b01519050388062000176565b908a9350601f1983169185600052896000209260005b8b8282106200036357505084116200034a575b505050811b01905562000188565b015160001983861b60f8161c191690553880806200033c565b8385015186558e9790950194938401930162000329565b620003a490866000528a600020848087018c1c8201928d8810620003ab575b018b1c019062000546565b3862000160565b9250819262000399565b634e487b7160e01b600052602260045260246000fd5b92607f16926200014c565b01519050388062000118565b908b9350601f1983169160026000528a6000209260005b8c8282106200043557505084116200041b575b505050811b016002556200012d565b015160001960f88460031b161c191690553880806200040c565b8385015186558f97909501949384019301620003f9565b620004769060026000528a600020878086018c1c8201928d8710620003ab57018b1c019062000546565b3862000101565b91607f1691620000ed565b81516001600160a01b0381168103620004a9578152908801908801620000c4565b600080fd5b6040519190601f01601f191682016001600160401b038111838210176200029957604052565b919080601f84011215620004a95782516001600160401b03811162000299576020906200050a601f8201601f19168301620004ae565b92818452828287010111620004a95760005b8181106200053257508260009394955001015290565b85810183015184820184015282016200051c565b81811062000552575050565b600081556001016200054656fe60806040526004361015610013575b600080fd5b60003560e01c806301ffc9a7146103d357806306fdde03146103ca578063081812fc146103c1578063095ea7b3146103b8578063098144d4146103af578063099b6bfa146103a65780630d705df61461039d57806318160ddd146103945780631b73593c1461038b57806323452b9c1461038257806323b872dd146103795780632a55205a146103705780633680620d1461036757806342260b5d1461035e57806342842e0e1461035557806342966c681461034c57806344dae42c1461034357806348a4c1011461033a578063511aa6441461033157806355f804b31461032857806360c308b61461031f5780636352211e1461031657806364869dad1461030d57806366251b69146103045780636c0360eb146102fb5780636f8b44b0146102f257806370a08231146102e9578063715018a6146102e057806379ba5097146102d75780637a05bc82146102ce5780637bc2be76146102c5578063840e15d4146102bc5780638da5cb5b146102b3578063911f456b146102aa578063938e3d7b146102a157806395d89b4114610298578063a22cb4651461028f578063a483011414610286578063a9fc664e1461027d578063ad2f852a14610274578063b88d4fde1461026b578063c6ab67a314610262578063c87b56dd14610259578063cb743ba814610250578063d5abeb0114610247578063e8a3d4851461023e578063e985e9c5146102355763f2fde38b1461022d57600080fd5b61000e612b1a565b5061000e612af6565b5061000e612a4e565b5061000e612a2f565b5061000e6129c4565b5061000e6129a4565b5061000e612985565b5061000e6128f4565b5061000e6128a0565b5061000e6127f7565b5061000e6127a1565b5061000e61270e565b5061000e612666565b5061000e612516565b5061000e611998565b5061000e61196e565b5061000e61190f565b5061000e611886565b5061000e6117fa565b5061000e611750565b5061000e6116f1565b5061000e611691565b5061000e61161d565b5061000e6115ec565b5061000e611587565b5061000e61134e565b5061000e61131e565b5061000e6111bd565b5061000e611064565b5061000e610f63565b5061000e610d8d565b5061000e610c37565b5061000e610acd565b5061000e610aa4565b5061000e610a82565b5061000e6109d8565b5061000e610980565b5061000e610966565b5061000e6108e0565b5061000e610844565b5061000e61081c565b5061000e6107f3565b5061000e610780565b5061000e610756565b5061000e6106ad565b5061000e610647565b5061000e610565565b5061000e6103ee565b6001600160e01b031981160361000e57565b503461000e57602036600319011261000e5761044460043561040f816103dc565b63ffffffff60e01b16630c487f4760e11b81149081156104ed575b8115610448575b5060405190151581529081906020820190565b0390f35b63152a902d60e11b8114915081156104dc575b81156104cb575b81156104ba575b8115610477575b5038610431565b6301ffc9a760e01b8114915081156104a9575b8115610498575b5038610470565b635b5e139f60e01b14905038610491565b6380ac58cd60e01b8114915061048a565b632483248360e11b81149150610469565b63503e914d60e11b81149150610462565b632b435fdb60e21b8114915061045b565b639c15441560e01b8114915061042a565b600091031261000e57565b60005b83811061051c5750506000910152565b818101518382015260200161050c565b9060209161054581518092818552858086019101610509565b601f01601f1916010190565b90602061056292818152019061052c565b90565b503461000e5760008060031936011261064457604051908060025461058981612ba2565b8085529160019180831690811561061a57506001146105bf575b610444856105b381870382610e65565b60405191829182610551565b9250600283527f405787fa12a823e0f2b7631cc41b3ba8828b3321ca811111fa75cd3aa3bb5ace5b8284106106025750505081016020016105b3826104446105a3565b805460208587018101919091529093019281016105e7565b869550610444969350602092506105b394915060ff191682840152151560051b82010192936105a3565b80fd5b503461000e57602036600319011261000e5760043561066581612d12565b1561068a576000526006602052602060018060a01b0360406000205416604051908152f35b6040516333d1c03960e21b8152600490fd5b6001600160a01b0381160361000e57565b503461000e57604036600319011261000e576004356106cb8161069c565b6001600160a01b039060243590826106e283612c9a565b16803303610736575b600093838552600660205260408520921691826001600160601b0360a01b8254161790557f8c5be1e5ebec7d5bd14f71427d1e84f3dd0314c0f7b2291e5b200ac8c7c3b9258480a480f35b6107403382613f72565b6106eb576040516367d9dca160e11b8152600490fd5b503461000e57600036600319011261000e576008546040516001600160a01b039091168152602090f35b503461000e57602036600319011261000e5760043561079d613206565b600054600019016107e15760407f7c22004198bf87da0f0dab623c72e66ca1200f4454aa3b9ca30f436275428b7c91600e549080600e5582519182526020820152a1005b60405163e03264af60e01b8152600490fd5b503461000e57600036600319011261000e576040805163657711f560e11b815260006020820152f35b503461000e57600036600319011261000e576000546001546040519103600019018152602090f35b503461000e57600060e036600319011261064457806004356108658161069c565b60c03660231901126108dd57610879613206565b610882816136db565b6001600160a01b0316803b156108dd57819060c4604051809481936301308e6560e01b83526108b36004840161372e565b5af180156108d0575b6108c4575080f35b6108cd90610e0f565b80f35b6108d8612fd5565b6108bc565b50fd5b503461000e57600080600319360112610644576108fb6130e4565b6001600160601b0360a01b600a5416600a557f11a3cf439fb225bfe74225716b6774765670ec1060e3796802e62139d69974da6020604051838152a180f35b606090600319011261000e576004356109528161069c565b9060243561095f8161069c565b9060443590565b503461000e5761097e6109783661093a565b91612d4d565b005b503461000e57604036600319011261000e576040602435612710600f54918260a01c908181029181830414901517156109cb575b83516001600160a01b039093168352046020820152f35b6109d36131d8565b6109b4565b503461000e576000806003196040368201126108dd576004356109fa8161069c565b602435916001600160401b038311610a7d576060908336030112610a7957610a20613206565b610a29816136db565b6001600160a01b031690813b15610a79578291610a679160405194858094819363ebb4a55f60e01b83526020600484015260248301906004016137db565b03925af180156108d0576108c4575080f35b5050fd5b505050fd5b503461000e57600036600319011261000e576020600f5460a01c604051908152f35b503461000e5761097e610ab63661093a565b9060405192610ac484610e4a565b60008452612f20565b503461000e57602036600319011261000e57600435610aeb81612c9a565b60008281526006602052604090208054916001600160a01b03811691338085149084141715610b19565b1590565b610c13575b600093610b2b86856132bd565b610c0a575b506001600160a01b038216600090815260056020526040902080546fffffffffffffffffffffffffffffffff01905560008481526004602052604090204260a01b8317600360e01b179055600160e11b811615610bc1575b507fddf252ad1be2c89b69c2b068fc378daa952ba7f163c4a11628f55a4df523b3ef8280a461097e610bbc60015460010190565b600155565b60018401610bd9816000526004602052604060002090565b5415610be6575b50610b88565b83548114610be057610c02906000526004602052604060002090565b553880610be0565b83905538610b30565b610c20610b153385613f72565b15610b1e57604051632ce44b5f60e11b8152600490fd5b503461000e57604036600319011261000e57610c51613206565b6001600160a01b03610c61613251565b1615610d1a576127106001600160601b03610c7a613267565b1611610ce457610c8861327d565b7ff21fccf4d64d86d532c4e4eb86c007b6ad57a460c27d724188625e755ec6cf6d610cb1613251565b610cb9613267565b604080516001600160a01b0390931683526001600160601b039091166020830152819081015b0390a1005b610d16610cef613267565b604051633cadbafb60e01b81526001600160601b0390911660048201529081906024820190565b0390fd5b604051631cc0baef60e01b8152600490fd5b60c43590811515820361000e57565b6101243590811515820361000e57565b3590811515820361000e57565b606090600319011261000e57600435610d708161069c565b90602435610d7d8161069c565b90604435801515810361000e5790565b503461000e57610d9c36610d58565b9091610da6613206565b610daf816136db565b6001600160a01b031690813b1561000e57604051638e7d1e4360e01b81526001600160a01b03909316600484015215156024830152600091908290829081838160448101610a67565b50634e487b7160e01b600052604160045260246000fd5b6001600160401b038111610e2257604052565b610e2a610df8565b604052565b60e081019081106001600160401b03821117610e2257604052565b602081019081106001600160401b03821117610e2257604052565b90601f801991011681019081106001600160401b03821117610e2257604052565b604435906001600160501b038216820361000e57565b35906001600160501b038216820361000e57565b6064359062ffffff8216820361000e57565b359062ffffff8216820361000e57565b6084359064ffffffffff8216820361000e57565b60a4359064ffffffffff8216820361000e57565b60c4359064ffffffffff8216820361000e57565b359064ffffffffff8216820361000e57565b60e4359061ffff8216820361000e57565b610104359061ffff8216820361000e57565b60a4359061ffff8216820361000e57565b359061ffff8216820361000e57565b503461000e5761012036600319011261000e57600435610f828161069c565b60243590610f8f8261069c565b60e036604319011261000e5761097e9160405191610fac83610e2f565b610fb4610e86565b8352610fbe610eb0565b6020840152610fcb610ed2565b6040840152610fd8610ee6565b6060840152610fe5610efa565b6080840152610ff2610f20565b60a0840152610fff610f31565b60c08401526139f0565b9181601f8401121561000e578235916001600160401b03831161000e576020838186019501011161000e57565b602060031982011261000e57600435906001600160401b03821161000e5761106091600401611009565b9091565b503461000e5761107336611036565b61107b613206565b6001600160401b0381116111b0575b61109e81611099600c54612ba2565b613121565b6000601f821160011461112f578192600092611124575b50508160011b916000199060031b1c191617600c555b6000546001549003600019016110dd57005b7f6bd5c950a8d8df17f772f5af37cb3655737899cbf903264b9795592da439661c610cdf61110c6000546131ef565b60405191829182919060206040840193600181520152565b0135905038806110b5565b600c600052601f198216927fdf6966c971051c3d54ec59162606531493a51404a002842f56009d7e5cf4a8c791805b8581106111985750836001951061117e575b505050811b01600c556110cb565b0135600019600384901b60f8161c19169055388080611170565b9092602060018192868601358155019401910161115e565b6111b8610df8565b61108a565b503461000e57602036600319011261000e576004356001600160401b0380821161000e573660238301121561000e57816004013590811161000e576024820191602436918360051b01011161000e576112146130e4565b601280549060005b8281106112b55750505060005b81811061126c57508161125d827fbbd3b69c138de4d317d0bc4290282c4e1cbd1e58b579a5b4f114b598c237454d94613427565b610cdf604051928392836134f8565b806112af6112a26112886112836001958789613409565b61325d565b6001600160a01b0316600090815260116020526040902090565b805460ff19166001179055565b01611229565b6001908254811015611311575b60008390527fbb8a6a4669ba250d26cd7a459eca9d215f8307e33aebe50379bc5a3617ec344481015461130b90611301906001600160a01b0316611288565b805460ff19169055565b0161121c565b6113196133f2565b6112c2565b503461000e57602036600319011261000e5760206001600160a01b03611345600435612c9a565b16604051908152f35b503461000e5760408060031936011261000e576004908135916113708361069c565b60243591600193846010540361153257600260105561138e336136db565b600094855491858301956000198088018091860111611525575b600b548082116115015750508451936113c085610e4a565b88855281156114f1576001600160a01b0383166000908152600560205260409020680100000000000000018302815401905588848060018060a01b0386169381861460e11b4260a01b178517611420826000526004602052604060002090565b5580857fddf252ad1be2c89b69c2b068fc378daa952ba7f163c4a11628f55a4df523b3ef95868180a4015b8a81036114e257505050156114d357868855813b61146f575b876108cd6001601055565b86039180805b611494575b505050505050508154036106445738808080808080611464565b156114c6575b876114ac610b15868487019686613012565b6114b65781611475565b85516368d2bf6b60e11b81528790fd5b86831061149a578061147a565b8451622e076360e81b81528690fd5b80848d858180a401859061144b565b855163b562e8dd60e01b81528790fd5b865163384b48c560e21b815280890192835260208301919091529081906040010390fd5b61152d6131d8565b6113a8565b815162461bcd60e51b8152602081850152600a6024820152695245454e5452414e435960b01b6044820152606490fd5b604090600319011261000e5760043561157a8161069c565b906024356105628161069c565b503461000e5761159636611562565b61159e613206565b6115a7826136db565b6001600160a01b0391821691823b1561000e5760405163024e71b760e31b81529116600482015260009182908290602490829084905af180156108d0576108c4575080f35b503461000e57600036600319011261000e57610444611609612bdc565b60405191829160208352602083019061052c565b503461000e57602036600319011261000e5760043561163a613206565b6001600160401b038111611679576020817f7810bd47de260c3e9ee10061cf438099dd12256c79485f12f94dbccc981e806c92600b55604051908152a1005b6024906040519063b43e913760e01b82526004820152fd5b503461000e57602036600319011261000e576004356116af8161069c565b6001600160a01b031680156116df57600052600560205260206001600160401b0360406000205416604051908152f35b6040516323d3ad8160e21b8152600490fd5b503461000e576000806003193601126106445761170c6130e4565b600980546001600160a01b0319811690915581906001600160a01b03167f8be0079c531659141344cd1fd0a4f28419497f9722a3daafe3b4186f6b6457e08280a380f35b503461000e5760008060031936011261064457600a546001600160a01b0380821691338390036117e8576001600160601b0360a01b809116600a557f11a3cf439fb225bfe74225716b6774765670ec1060e3796802e62139d69974da6020604051868152a18260095491821617600955167f8be0079c531659141344cd1fd0a4f28419497f9722a3daafe3b4186f6b6457e08380a380f35b604051636b7584e760e11b8152600490fd5b503461000e57600060403660031901126106445760043561181a8161069c565b816024356001600160401b0381116118825761183a903690600401611009565b9092611844613206565b61184d816136db565b6001600160a01b0316803b1561187e57610a67938360405180968195829463b957d0cb60e01b845260048401613240565b8280fd5b5080fd5b503461000e576000610140366003190112610644576004356118a78161069c565b81602435916118b58361069c565b610100366043190112611882576118ca613206565b6118d3816136db565b6001600160a01b0390811692833b1561187e5761012490836040519586948593637ecd591560e11b85521660048401526108b3602484016138e0565b503461000e57602036600319011261000e5760043561192d8161069c565b60018060a01b0316600052600560205260606001600160401b0360406000205460401c1660001960005401600b549060405192835260208301526040820152f35b503461000e57600036600319011261000e576009546040516001600160a01b039091168152602090f35b503461000e5760031960203682011261000e5760048035906001600160401b03821161000e5761030082820193833603011261000e576119d66130e4565b8235806124bf575b50602482016119ed8185613a4f565b9050612459575b5060448201611a038185613a4f565b90506123f3575b5065ffffffffffff611a1e60a48401613a81565b1615159260018094611a40611a3560c48701613a81565b65ffffffffffff1690565b15151714612384575b6101448301611a588183613a4f565b9050612313575b506101648301611a6f8183613b3f565b356122a1575b5061018483016001600160a01b03611a8c8261325d565b16612222575b506101a4830135806121cb575b506101c48301611aaf8183613b76565b9050612106575b506101e48301611ac68183613b76565b9050612040575b506102048301611add8183613b76565b9050611f7b575b506102248301611af48183613b76565b9050611eb5575b506102648301611b0b8183613bab565b9050611dbe575b506102848301611b228183613b76565b9050611d07575b506102c48301611b398183613de4565b9050611c10575b506102e4830190611b518282613b76565b9050611b5957005b60009360640191855b611b6857005b611b728183613b76565b905085101561097e57611b83613ef4565b611b8c8461325d565b95611ba461128382611b9e8688613b76565b90613409565b91303b1561000e5760008998938994611bd06040519485938493631446a99160e21b85528d8501613f4a565b038183305af18015611c03575b611bea575b500194611b62565b80611bf7611bfd92610e0f565b806104fe565b38611be2565b611c0b612fd5565b611bdd565b611c1a8183613de4565b6102a486019150611c2b8285613b76565b91905003611cf65760009160648601875b611c49575b505050611b40565b611c538286613de4565b9050841015611cf157611c658161325d565b611c7661128386611b9e878a613b76565b94611c8b81611c85868a613de4565b90613e19565b95303b1561000e5760008b97938a611cb78a966040519586948594631446a99160e21b86528501613e36565b038183305af18015611ce4575b611cd1575b500193611c3c565b80611bf7611cde92610e0f565b38611cc9565b611cec612fd5565b611cc4565b611c41565b6040516374ef6df760e01b81528490fd5b8460009160648601915b611d1d575b5050611b29565b611d278185613b76565b9050831015611db957611d38613ce5565b92611d428361325d565b90611d5461128382611b9e868a613b76565b303b1561000e5760008a969389611d7f89966040519586948594633de15f3b60e11b86528501613d42565b038183305af18015611dac575b611d99575b500192611d11565b80611bf7611da692610e0f565b38611d91565b611db4612fd5565b611d8c565b611d16565b611dc88183613bab565b61024486019150611dd98285613b76565b91905003611ea45760009160648601875b611df7575b505050611b12565b611e018286613bab565b9050841015611e9f57611e138161325d565b611e2461128386611b9e878a613b76565b94611e3981611e33868a613bab565b90613be0565b95303b1561000e5760008b97938a611e658a966040519586948594633de15f3b60e11b86528501613bfe565b038183305af18015611e92575b611e7f575b500193611dea565b80611bf7611e8c92610e0f565b38611e77565b611e9a612fd5565b611e72565b611def565b60405163b81aa63960e01b81528490fd5b60009060648501865b611eca575b5050611afb565b611ed48285613b76565b9050831015611f7657611ee68161325d565b611ef761128385611b9e8689613b76565b93303b1561000e576040805163196e877560e31b81526001600160a01b03938416898201908152969093166020870152600090860181905289958693919082908190606001038183305af18015611f69575b611f56575b500192611ebe565b80611bf7611f6392610e0f565b38611f4e565b611f71612fd5565b611f49565b611ec3565b60009060648501865b611f90575b5050611ae4565b611f9a8285613b76565b905083101561203b57611fac8161325d565b611fbd61128385611b9e8689613b76565b93303b1561000e576040805163196e877560e31b81526001600160a01b039384168982019081529390961660208401526001908301528894859260009082908190606001038183305af1801561202e575b61201b575b500192611f84565b80611bf761202892610e0f565b38612013565b612036612fd5565b61200e565b611f89565b60009060648501865b612055575b5050611acd565b61205f8285613b76565b9050831015612101576120718161325d565b61208261128385611b9e8689613b76565b93303b1561000e57604080516348a4c10160e01b81526001600160a01b03938416898201908152969093166020870152600090860181905289958693919082908190606001038183305af180156120f4575b6120e1575b500192612049565b80611bf76120ee92610e0f565b386120d9565b6120fc612fd5565b6120d4565b61204e565b60009060648501865b61211b575b5050611ab6565b6121258285613b76565b90508310156121c6576121378161325d565b61214861128385611b9e8689613b76565b93303b1561000e57604080516348a4c10160e01b81526001600160a01b039384168982019081529390961660208401526001908301528894859260009082908190606001038183305af180156121b9575b6121a6575b50019261210f565b80611bf76121b392610e0f565b3861219e565b6121c1612fd5565b612199565b612114565b303b1561000e576040516304cdb5fd60e11b81528381019182529060009082908190602001038183305af18015612215575b15611a9f5780611bf761220f92610e0f565b38611a9f565b61221d612fd5565b6121fd565b6122376122316064860161325d565b9161325d565b90303b1561000e57604080516366251b6960e01b81526001600160a01b039283168682019081529290931660208301526000918391829101038183305af18015612294575b15611a925780611bf761228e92610e0f565b38611a92565b61229c612fd5565b61227c565b6122b76122b06064860161325d565b9183613b3f565b90303b1561000e57604051633680620d60e01b815291600091839182916122e19190888401613b54565b038183305af18015612306575b15611a755780611bf761230092610e0f565b38611a75565b61230e612fd5565b6122ee565b6123296123226064860161325d565b9183613a4f565b9190303b1561000e576000916123526040519485938493633d02de4160e11b8552898501613b1d565b038183305af18015612377575b15611a5f5780611bf761237192610e0f565b38611a5f565b61237f612fd5565b61235f565b6123906064840161325d565b303b1561000e5760006123bb91604051809381926306dcd64f60e21b83526084890190888401613a8b565b038183305af180156123e6575b6123d3575b50611a49565b80611bf76123e092610e0f565b386123cd565b6123ee612fd5565b6123c8565b6123fd9084613a4f565b90303b1561000e5760405163938e3d7b60e01b815291600091839182916124279190878401613240565b038183305af1801561244c575b15611a0a5780611bf761244692610e0f565b38611a0a565b612454612fd5565b612434565b6124639084613a4f565b90303b1561000e576040516355f804b360e01b8152916000918391829161248d9190878401613240565b038183305af180156124b2575b156119f45780611bf76124ac92610e0f565b386119f4565b6124ba612fd5565b61249a565b303b1561000e576040516306f8b44b60e41b81528281019182529060009082908190602001038183305af18015612509575b156119de5780611bf761250392610e0f565b386119de565b612511612fd5565b6124f1565b503461000e5761252536611036565b61252d613206565b6001600160401b038111612659575b6125508161254b600d54612ba2565b613182565b600091601f82116001146125b857817f905d981207a7d0b6c62cc46ab0be2a076d0298e4a86d0ab79882dbd01ac37378936000916125ad575b508260011b906000198460031b1c191617600d555b610cdf60405192839283613240565b905081013538612589565b600d6000527fd7b6990105719101dabeb77144f2a3385c8033acd3af97e9423a695e81ad1eb5601f198316845b818110612641575093837f905d981207a7d0b6c62cc46ab0be2a076d0298e4a86d0ab79882dbd01ac373789510612627575b5050600182811b01600d5561259e565b820135600019600385901b60f8161c191690553880612617565b838601358355602095860195600190930192016125e5565b612661610df8565b61253c565b503461000e5760008060031936011261064457604051908060035461268a81612ba2565b8085529160019180831690811561061a57506001146126b357610444856105b381870382610e65565b9250600383527fc2575a0e9e593c00f959f8c92f12db2869c3395a3b0502d05e2516446f71f85b5b8284106126f65750505081016020016105b3826104446105a3565b805460208587018101919091529093019281016126db565b503461000e57604036600319011261000e5760043561272c8161069c565b6024359081151580920361000e573360009081526007602090815260408083206001600160a01b0385168452909152902060ff1981541660ff841617905560405191825260018060a01b0316907f17307eab39ab6107e8899845ad3d59bd9653f200f220920489ca2b5937696c3160203392a3005b503461000e57604036600319011261000e576127bb613206565b60408051600435815260243560208201527f6bd5c950a8d8df17f772f5af37cb3655737899cbf903264b9795592da439661c9181908101610cdf565b503461000e57602036600319011261000e576004356128158161069c565b61281d6130e4565b600854906001600160a01b0380831690821680821461288e576001600160a01b031993909316909217600855604080516001600160a01b0393841681529190921660208201527fcc5dc080ff977b3c3a211fa63ab74f90f658f5ba9d3236e92c8f59570f442aac9181908101610cdf565b60405163251dd8cf60e11b8152600490fd5b503461000e57600036600319011261000e57600f546040516001600160a01b039091168152602090f35b6020906001600160401b0381116128e7575b601f01601f19160190565b6128ef610df8565b6128dc565b503461000e57608036600319011261000e576004356129128161069c565b60243561291e8161069c565b606435916001600160401b03831161000e573660238401121561000e5782600401359161294a836128ca565b926129586040519485610e65565b808452366024828701011161000e57602081600092602461097e9801838801378501015260443591612f20565b503461000e57600036600319011261000e576020600e54604051908152f35b503461000e57602036600319011261000e576104446116096004356135cd565b503461000e576129d336610d58565b90916129dd613206565b6129e6816136db565b6001600160a01b031690813b1561000e57604051633f952e6560e11b81526001600160a01b03909316600484015215156024830152600091908290829081838160448101610a67565b503461000e57600036600319011261000e576020600b54604051908152f35b503461000e57600080600319360112610644576040519080600d54612a7281612ba2565b8085529160019180831690811561061a5750600114612a9b57610444856105b381870382610e65565b9250600d83527fd7b6990105719101dabeb77144f2a3385c8033acd3af97e9423a695e81ad1eb55b828410612ade5750505081016020016105b3826104446105a3565b80546020858701810191909152909301928101612ac3565b503461000e576020612b10612b0a36611562565b90613f72565b6040519015158152f35b503461000e57602036600319011261000e57600435612b388161069c565b612b406130e4565b6001600160a01b03168015612b90576020817f11a3cf439fb225bfe74225716b6774765670ec1060e3796802e62139d69974da926001600160601b0360a01b600a541617600a55604051908152a1005b604051633a247dd760e11b8152600490fd5b90600182811c92168015612bd2575b6020831014612bbc57565b634e487b7160e01b600052602260045260246000fd5b91607f1691612bb1565b60405190600082600c5491612bf083612ba2565b80835292600190818116908115612c785750600114612c19575b50612c1792500383610e65565b565b600c600090815291507fdf6966c971051c3d54ec59162606531493a51404a002842f56009d7e5cf4a8c75b848310612c5d5750612c17935050810160200138612c0a565b81935090816020925483858a01015201910190918592612c44565b905060209250612c1794915060ff191682840152151560051b82010138612c0a565b6000818060011115612cb9575b604051636f96cda160e11b8152600490fd5b8154811015612ca75781526004906020918083526040928383205494600160e01b861615612ce957505050612ca7565b93929190935b8515612cfd57505050505090565b60001901808352818552838320549550612cef565b80600111159081612d41575b81612d27575090565b90506000526004602052600160e01b604060002054161590565b60005481109150612d1e565b90612d5783612c9a565b6001600160a01b0383811692828216849003612ede57600086815260066020526040902080549092612d986001600160a01b03881633908114908414171590565b612eba575b8216958615612ea857612dfb93612dd992612db98a868561334c565b612e9e575b506001600160a01b0316600090815260056020526040902090565b80546000190190556001600160a01b0316600090815260056020526040902090565b80546001019055600160e11b804260a01b851717612e23866000526004602052604060002090565b55811615612e54575b507fddf252ad1be2c89b69c2b068fc378daa952ba7f163c4a11628f55a4df523b3ef600080a4565b60018401612e6c816000526004602052604060002090565b5415612e79575b50612e2c565b6000548114612e7357612e96906000526004602052604060002090565b553880612e73565b6000905538612dbe565b604051633a954ecd60e21b8152600490fd5b612ec7610b153389613f72565b15612d9d57604051632ce44b5f60e11b8152600490fd5b60405162a1148160e81b8152600490fd5b60405190602082018281106001600160401b03821117612f13575b60405260008252565b612f1b610df8565b612f0a565b929190612f2e828286612d4d565b803b612f3b575b50505050565b612f44936130bb565b15612f525738808080612f35565b6040516368d2bf6b60e11b8152600490fd5b9081602091031261000e5751610562816103dc565b610562939260809260018060a01b03168252600060208301526040820152816060820152019061052c565b6001600160a01b0391821681529116602082015260408101919091526080606082018190526105629291019061052c565b506040513d6000823e3d90fd5b3d1561300d573d90612ff3826128ca565b916130016040519384610e65565b82523d6000602084013e565b606090565b61303b60209160009394604051948580948193630a85bd0160e11b998a84523360048501612f79565b03926001600160a01b03165af16000918161308b575b5061307d5761305e612fe2565b80519081613078576040516368d2bf6b60e11b8152600490fd5b602001fd5b6001600160e01b0319161490565b6130ad91925060203d81116130b4575b6130a58183610e65565b810190612f64565b9038613051565b503d61309b565b9260209161303b936000604051809681958294630a85bd0160e11b9a8b85523360048601612fa4565b6009546001600160a01b031633036130f857565b604051635fc483c560e01b8152600490fd5b818110613115575050565b6000815560010161310a565b90601f821161312e575050565b612c1791600c6000527fdf6966c971051c3d54ec59162606531493a51404a002842f56009d7e5cf4a8c7906020601f840160051c83019310613178575b601f0160051c019061310a565b909150819061316b565b90601f821161318f575050565b612c1791600d6000527fd7b6990105719101dabeb77144f2a3385c8033acd3af97e9423a695e81ad1eb5906020601f840160051c8301931061317857601f0160051c019061310a565b50634e487b7160e01b600052601160045260246000fd5b6000198101919082116131fe57565b612c176131d8565b60018060a01b036009541630331490331417156130f857565b908060209392818452848401376000828201840152601f01601f1916010190565b91602061056293818152019161321f565b6004356105628161069c565b356105628161069c565b6024356001600160601b038116810361000e5790565b6004356132898161069c565b6024356001600160601b038116810361000e576001600160a01b0390911660a09190911b6001600160a01b03191617600f55565b6001600160a01b039081169081151580613344575b6132db57505050565b6008541691826132ea57505050565b823b1561000e576084600092604051948593849263657711f560e11b8452336004850152602484015285604484015260648301525afa8015613337575b61332e5750565b612c1790610e0f565b61333f612fd5565b613327565b5060006132d2565b6001600160a01b03929083169190821515806133e7575b61336d5750505050565b8360085416928361337f575b50612f35565b833b1561000e57600093608492604051968795869463657711f560e11b8652336004870152602486015216604484015260648301525afa80156133da575b6133cb575b80808080613379565b6133d490610e0f565b386133c2565b6133e2612fd5565b6133bd565b508382161515613363565b50634e487b7160e01b600052603260045260246000fd5b919081101561341a575b60051b0190565b6134226133f2565b613413565b6001600160401b0382116134eb575b6801000000000000000082116134de575b601254826012558083106134a8575b50601260005260005b82811061346b57505050565b600190602083359361347c8561069c565b0192817fbb8a6a4669ba250d26cd7a459eca9d215f8307e33aebe50379bc5a3617ec344401550161345f565b6134d890837fbb8a6a4669ba250d26cd7a459eca9d215f8307e33aebe50379bc5a3617ec3444918201910161310a565b38613456565b6134e6610df8565b613447565b6134f3610df8565b613436565b90916040602092828482018583525201929160005b82811061351b575050505090565b909192938280600192873561352f8161069c565b848060a01b0316815201950191019291909261350d565b602090805115613554570190565b61355c6133f2565b0190565b90602091805182101561357257010190565b61357a6133f2565b010190565b60405190604082018281106001600160401b038211176135ad575b60405260018252602f60f81b6020830152565b6135b5610df8565b61359a565b9061355c60209282815194859201610509565b6135d9610b1582612d12565b61368a576135e5612bdc565b90815115613680576136116136036135fd84516131ef565b84613560565b516001600160f81b03191690565b61363461362761360361362261357f565b613546565b6001600160f81b03191690565b6001600160f81b03199091160361367c576136689161366e6136586105629361369c565b60405194859360208501906135ba565b906135ba565b03601f198101835282610e65565b5090565b5050610562612eef565b604051630a14c4b560e41b8152600490fd5b9060405160a08101604052608081019260008452925b6000190192600a9060308282060185530492836136b257809350608091030191601f1901918252565b60018060a01b03166000526011602052600160ff604060002054161515036136ff57565b6040516315e26ff360e01b8152600490fd5b65ffffffffffff81160361000e57565b60a43590612c1782613711565b6024356001600160501b03811680910361000e57815260443561375081613711565b65ffffffffffff809116602083015260643561376b81613711565b1660408201526084359061ffff80831680930361000e57612c17926060830152613793610f43565b16608082015260a06137a3610d2c565b1515910152565b9035601e198236030181121561000e5701602081359101916001600160401b03821161000e57813603831361000e57565b9190606081019083358152602080850135601e198636030181121561000e578501908082359201936001600160401b03831161000e578260051b90813603861361000e5760608584015283905283016080908101949291906000908501845b84831061386757505050505050613859846040610562959601906137aa565b91604081850391015261321f565b909192939496848061388e600193607f198b82030187526138888c876137aa565b9061321f565b990193019301919493929061383a565b60c4359060ff8216820361000e57565b359060ff8216820361000e57565b60e4359063ffffffff8216820361000e57565b359063ffffffff8216820361000e57565b6044356001600160501b03811680910361000e5781526064359061ffff821680920361000e57612c1791602082015265ffffffffffff60843561392281613711565b166040820152613942613933613721565b65ffffffffffff166060830152565b61395761394d61389e565b60ff166080830152565b61396f6139626138bc565b63ffffffff1660a0830152565b61398561397a610f31565b61ffff1660c0830152565b60e06137a3610d3b565b60c0906001600160501b03815116835262ffffff602082015116602084015264ffffffffff80604083015116604085015280606083015116606085015260808201511660808401528161ffff918260a08201511660a0860152015116910152565b6139f8613206565b613a01816136db565b6001600160a01b03908116803b1561000e576000928361010492613a4060405197889687956309a7002f60e31b8752166004860152602485019061398f565b5af180156133375761332e5750565b903590601e198136030182121561000e57018035906001600160401b03821161000e5760200191813603831361000e57565b3561056281613711565b6001600160a01b03909116815260e08101929160c0906137a39060a0906001600160501b03613ab982610e9c565b1660208601526020810135613acd81613711565b65ffffffffffff80911660408701526040820135613aea81613711565b16606086015261ffff80613b0060608401610f54565b166080870152613b1260808301610f54565b168286015201610d4b565b6001600160a01b0390911681526040602082018190526105629391019161321f565b903590605e198136030182121561000e570190565b6001600160a01b039091168152604060208201819052610562929101906137db565b903590601e198136030182121561000e57018035906001600160401b03821161000e57602001918160051b3603831361000e57565b903590601e198136030182121561000e57018035906001600160401b03821161000e57602001918160081b3603831361000e57565b9190811015613bf1575b60081b0190565b613bf96133f2565b613bea565b6001600160a01b0391821681529116602082015261014081019291612c179190610120906137a39060e0906001600160501b03613c3a82610e9c565b16604086015261ffff613c4f60208301610f54565b16606086015265ffffffffffff6040820135613c6a81613711565b166080860152613c906060820135613c8181613711565b65ffffffffffff1660a0870152565b613ca9613c9f608083016138ae565b60ff1660c0870152565b613cc4613cb860a083016138cf565b63ffffffff1686840152565b613cdf613cd360c08301610f54565b61ffff16610100870152565b01610d4b565b6040519061010082018281106001600160401b03821117613d35575b6040528160e06000918281528260208201528260408201528260608201528260808201528260a08201528260c08201520152565b613d3d610df8565b613d01565b9060e0612c179395946101209261014085019760018060a01b0380921686521660208501526001600160501b03815116604085015261ffff602082015116606085015265ffffffffffff6040820151166080850152613db0606082015160a086019065ffffffffffff169052565b608081015160ff1660c085015260a081015163ffffffff168483015260c081015161ffff1661010085015201511515910152565b903590601e198136030182121561000e57018035906001600160401b03821161000e576020019160e082023603831361000e57565b9160e091811015613e2957020190565b613e316133f2565b020190565b6001600160a01b0391821681529116602082015261012081019291612c17919061010090613eeb9060c0906001600160501b03613e7282610e9c565b16604086015262ffffff613e8860208301610ec2565b16606086015264ffffffffff80613ea160408401610f0e565b16608087015280613eb460608401610f0e565b1660a0870152613ec660808301610f0e565b1682860152613ee5613eda60a08301610f54565b61ffff1660e0870152565b01610f54565b61ffff16910152565b6040519060e082018281106001600160401b03821117613f3d575b6040528160c06000918281528260208201528260408201528260608201528260808201528260a08201520152565b613f45610df8565b613f0f565b6001600160a01b0391821681529116602082015261012081019291612c17916040019061398f565b6001600160a01b0391808316731e0049783f008a0085193e00003d00cd54003c7114613fc95760ff92613fc49216600052600760205260406000209060018060a01b0316600052602052604060002090565b541690565b50505060019056fea2646970667358221220229c30eda169892f0eb9cab3390c3faed8fa2c76c7aa7e3fcea918989e92860164736f6c63430008110033",
    "sourcePath": "/media/david/Shared/karu/src/ERC721SeaDrop.sol",
    "compiler": {
        "name": "solc",
        "version": "0.8.17+commit.8df45f5f"
    },
    "functionHashes": {
        "acceptOwnership()": "79ba5097",
        "approve(address,uint256)": "095ea7b3",
        "balanceOf(address)": "70a08231",
        "baseURI()": "6c0360eb",
        "burn(uint256)": "42966c68",
        "cancelOwnershipTransfer()": "23452b9c",
        "contractURI()": "e8a3d485",
        "emitBatchMetadataUpdate(uint256,uint256)": "a4830114",
        "getApproved(uint256)": "081812fc",
        "getMintStats(address)": "840e15d4",
        "getTransferValidationFunction()": "0d705df6",
        "getTransferValidator()": "098144d4",
        "isApprovedForAll(address,address)": "e985e9c5",
        "maxSupply()": "d5abeb01",
        "mintSeaDrop(address,uint256)": "64869dad",
        "multiConfigure((uint256,string,string,address,(uint80,uint48,uint48,uint16,uint16,bool),string,(bytes32,string[],string),address,bytes32,address[],address[],address[],address[],address[],(uint80,uint16,uint48,uint48,uint8,uint32,uint16,bool)[],address[],address[],(uint80,uint24,uint40,uint40,uint40,uint16,uint16)[],address[]))": "911f456b",
        "name()": "06fdde03",
        "owner()": "8da5cb5b",
        "ownerOf(uint256)": "6352211e",
        "provenanceHash()": "c6ab67a3",
        "renounceOwnership()": "715018a6",
        "royaltyAddress()": "ad2f852a",
        "royaltyBasisPoints()": "42260b5d",
        "royaltyInfo(uint256,uint256)": "2a55205a",
        "safeTransferFrom(address,address,uint256)": "42842e0e",
        "safeTransferFrom(address,address,uint256,bytes)": "b88d4fde",
        "setApprovalForAll(address,bool)": "a22cb465",
        "setBaseURI(string)": "55f804b3",
        "setContractURI(string)": "938e3d7b",
        "setMaxSupply(uint256)": "6f8b44b0",
        "setProvenanceHash(bytes32)": "099b6bfa",
        "setRoyaltyInfo((address,uint96))": "44dae42c",
        "setTransferValidator(address)": "a9fc664e",
        "supportsInterface(bytes4)": "01ffc9a7",
        "symbol()": "95d89b41",
        "tokenURI(uint256)": "c87b56dd",
        "totalSupply()": "18160ddd",
        "transferFrom(address,address,uint256)": "23b872dd",
        "transferOwnership(address)": "f2fde38b",
        "updateAllowList(address,(bytes32,string[],string))": "3680620d",
        "updateAllowedFeeRecipient(address,address,bool)": "48a4c101",
        "updateAllowedSeaDrop(address[])": "60c308b6",
        "updateCreatorPayoutAddress(address,address)": "66251b69",
        "updateDropURI(address,string)": "7a05bc82",
        "updatePayer(address,address,bool)": "cb743ba8",
        "updatePublicDrop(address,(uint80,uint48,uint48,uint16,uint16,bool))": "1b73593c",
        "updateSignedMintValidationParams(address,address,(uint80,uint24,uint40,uint40,uint40,uint16,uint16))": "511aa644",
        "updateTokenGatedDrop(address,address,(uint80,uint16,uint48,uint48,uint8,uint32,uint16,bool))": "7bc2be76"
    },
    "gasEstimates": {
        "creation": {
            "codeDepositCost": "3278200",
            "executionCost": "infinite",
            "totalCost": "infinite"
        },
        "external": {
            "acceptOwnership()": "51817",
            "approve(address,uint256)": "infinite",
            "balanceOf(address)": "3026",
            "baseURI()": "infinite",
            "burn(uint256)": "infinite",
            "cancelOwnershipTransfer()": "27772",
            "contractURI()": "infinite",
            "emitBatchMetadataUpdate(uint256,uint256)": "4481",
            "getApproved(uint256)": "6801",
            "getMintStats(address)": "7371",
            "getTransferValidationFunction()": "322",
            "getTransferValidator()": "2381",
            "isApprovedForAll(address,address)": "infinite",
            "maxSupply()": "3237",
            "mintSeaDrop(address,uint256)": "infinite",
            "multiConfigure((uint256,string,string,address,(uint80,uint48,uint48,uint16,uint16,bool),string,(bytes32,string[],string),address,bytes32,address[],address[],address[],address[],address[],(uint80,uint16,uint48,uint48,uint8,uint32,uint16,bool)[],address[],address[],(uint80,uint24,uint40,uint40,uint40,uint16,uint16)[],address[]))": "infinite",
            "name()": "infinite",
            "owner()": "2997",
            "ownerOf(uint256)": "infinite",
            "provenanceHash()": "3171",
            "renounceOwnership()": "28674",
            "royaltyAddress()": "3151",
            "royaltyBasisPoints()": "2561",
            "royaltyInfo(uint256,uint256)": "2630",
            "safeTransferFrom(address,address,uint256)": "infinite",
            "safeTransferFrom(address,address,uint256,bytes)": "infinite",
            "setApprovalForAll(address,bool)": "27241",
            "setBaseURI(string)": "infinite",
            "setContractURI(string)": "infinite",
            "setMaxSupply(uint256)": "26053",
            "setProvenanceHash(bytes32)": "30081",
            "setRoyaltyInfo((address,uint96))": "infinite",
            "setTransferValidator(address)": "28884",
            "supportsInterface(bytes4)": "736",
            "symbol()": "infinite",
            "tokenURI(uint256)": "infinite",
            "totalSupply()": "4541",
            "transferFrom(address,address,uint256)": "infinite",
            "transferOwnership(address)": "28713",
            "updateAllowList(address,(bytes32,string[],string))": "infinite",
            "updateAllowedFeeRecipient(address,address,bool)": "infinite",
            "updateAllowedSeaDrop(address[])": "infinite",
            "updateCreatorPayoutAddress(address,address)": "infinite",
            "updateDropURI(address,string)": "infinite",
            "updatePayer(address,address,bool)": "infinite",
            "updatePublicDrop(address,(uint80,uint48,uint48,uint16,uint16,bool))": "infinite",
            "updateSignedMintValidationParams(address,address,(uint80,uint24,uint40,uint40,uint40,uint16,uint16))": "infinite",
            "updateTokenGatedDrop(address,address,(uint80,uint16,uint48,uint48,uint8,uint32,uint16,bool))": "infinite"
        },
        "internal": {
            "_onlyAllowedSeaDrop(address)": "infinite",
            "_startTokenId()": "infinite",
            "_updateAllowedSeaDrop(address[] calldata)": "infinite"
        }
    }
}